{
  "contractName": "Liability",
  "abi": [
    {
      "inputs": [],
      "payable": false,
      "stateMutability": "nonpayable",
      "type": "constructor"
    },
    {
      "anonymous": false,
      "inputs": [
        {
          "indexed": false,
          "internalType": "uint256",
          "name": "role",
          "type": "uint256"
        },
        {
          "indexed": false,
          "internalType": "address",
          "name": "boss",
          "type": "address"
        }
      ],
      "name": "NewWorker",
      "type": "event"
    },
    {
      "anonymous": false,
      "inputs": [
        {
          "indexed": false,
          "internalType": "string",
          "name": "list",
          "type": "string"
        }
      ],
      "name": "Workers",
      "type": "event"
    },
    {
      "constant": true,
      "inputs": [],
      "name": "manager",
      "outputs": [
        {
          "internalType": "address",
          "name": "",
          "type": "address"
        }
      ],
      "payable": false,
      "stateMutability": "view",
      "type": "function"
    },
    {
      "constant": true,
      "inputs": [
        {
          "internalType": "address",
          "name": "",
          "type": "address"
        }
      ],
      "name": "requests",
      "outputs": [
        {
          "internalType": "address",
          "name": "toHead",
          "type": "address"
        },
        {
          "internalType": "uint256",
          "name": "agrees",
          "type": "uint256"
        }
      ],
      "payable": false,
      "stateMutability": "view",
      "type": "function"
    },
    {
      "constant": true,
      "inputs": [
        {
          "internalType": "address",
          "name": "",
          "type": "address"
        }
      ],
      "name": "workers",
      "outputs": [
        {
          "internalType": "bool",
          "name": "init",
          "type": "bool"
        },
        {
          "internalType": "uint256",
          "name": "role",
          "type": "uint256"
        },
        {
          "internalType": "address",
          "name": "id",
          "type": "address"
        },
        {
          "internalType": "address",
          "name": "boss",
          "type": "address"
        }
      ],
      "payable": false,
      "stateMutability": "view",
      "type": "function"
    },
    {
      "constant": true,
      "inputs": [
        {
          "internalType": "uint256",
          "name": "",
          "type": "uint256"
        }
      ],
      "name": "workersList",
      "outputs": [
        {
          "internalType": "address",
          "name": "",
          "type": "address"
        }
      ],
      "payable": false,
      "stateMutability": "view",
      "type": "function"
    },
    {
      "constant": false,
      "inputs": [
        {
          "internalType": "address",
          "name": "toWorker",
          "type": "address"
        }
      ],
      "name": "register",
      "outputs": [],
      "payable": false,
      "stateMutability": "nonpayable",
      "type": "function"
    },
    {
      "constant": false,
      "inputs": [
        {
          "internalType": "address",
          "name": "toHead",
          "type": "address"
        }
      ],
      "name": "requestSwitchDept",
      "outputs": [],
      "payable": false,
      "stateMutability": "nonpayable",
      "type": "function"
    },
    {
      "constant": false,
      "inputs": [
        {
          "internalType": "address",
          "name": "requester",
          "type": "address"
        }
      ],
      "name": "agreeToRequest",
      "outputs": [],
      "payable": false,
      "stateMutability": "nonpayable",
      "type": "function"
    },
    {
      "constant": true,
      "inputs": [
        {
          "internalType": "address",
          "name": "_addr",
          "type": "address"
        }
      ],
      "name": "addressToString",
      "outputs": [
        {
          "internalType": "string",
          "name": "",
          "type": "string"
        }
      ],
      "payable": false,
      "stateMutability": "pure",
      "type": "function"
    },
    {
      "constant": false,
      "inputs": [
        {
          "internalType": "address",
          "name": "add",
          "type": "address"
        }
      ],
      "name": "getWorker",
      "outputs": [],
      "payable": false,
      "stateMutability": "nonpayable",
      "type": "function"
    },
    {
      "constant": false,
      "inputs": [],
      "name": "getWorkers",
      "outputs": [],
      "payable": false,
      "stateMutability": "nonpayable",
      "type": "function"
    }
  ],
  "bytecode": "0x608060405234801561001057600080fd5b50336000806101000a81548173ffffffffffffffffffffffffffffffffffffffff021916908373ffffffffffffffffffffffffffffffffffffffff16021790555060018060008060009054906101000a900473ffffffffffffffffffffffffffffffffffffffff1673ffffffffffffffffffffffffffffffffffffffff1673ffffffffffffffffffffffffffffffffffffffff16815260200190815260200160002060000160006101000a81548160ff02191690831515021790555060018060008060009054906101000a900473ffffffffffffffffffffffffffffffffffffffff1673ffffffffffffffffffffffffffffffffffffffff1673ffffffffffffffffffffffffffffffffffffffff168152602001908152602001600020600101819055506000809054906101000a900473ffffffffffffffffffffffffffffffffffffffff16600160008060009054906101000a900473ffffffffffffffffffffffffffffffffffffffff1673ffffffffffffffffffffffffffffffffffffffff1673ffffffffffffffffffffffffffffffffffffffff16815260200190815260200160002060020160006101000a81548173ffffffffffffffffffffffffffffffffffffffff021916908373ffffffffffffffffffffffffffffffffffffffff1602179055506000600160008060009054906101000a900473ffffffffffffffffffffffffffffffffffffffff1673ffffffffffffffffffffffffffffffffffffffff1673ffffffffffffffffffffffffffffffffffffffff16815260200190815260200160002060030160006101000a81548173ffffffffffffffffffffffffffffffffffffffff021916908373ffffffffffffffffffffffffffffffffffffffff16021790555060033390806001815401808255809150509060018203906000526020600020016000909192909190916101000a81548173ffffffffffffffffffffffffffffffffffffffff021916908373ffffffffffffffffffffffffffffffffffffffff160217905550506116be8061030f6000396000f3fe608060405234801561001057600080fd5b506004361061009e5760003560e01c806374adad1d1161006657806374adad1d146102fb57806380e05d65146103865780639fc1fce9146103ca578063c011b1c314610438578063c1499f711461047c5761009e565b80634048a257146100a35780634420e4861461016c578063481c6a75146101b05780635e57966d146101fa5780635f9e9184146102b7575b600080fd5b6100e5600480360360208110156100b957600080fd5b81019080803573ffffffffffffffffffffffffffffffffffffffff169060200190929190505050610486565b60405180851515151581526020018481526020018373ffffffffffffffffffffffffffffffffffffffff1673ffffffffffffffffffffffffffffffffffffffff1681526020018273ffffffffffffffffffffffffffffffffffffffff1673ffffffffffffffffffffffffffffffffffffffff16815260200194505050505060405180910390f35b6101ae6004803603602081101561018257600080fd5b81019080803573ffffffffffffffffffffffffffffffffffffffff169060200190929190505050610503565b005b6101b8610912565b604051808273ffffffffffffffffffffffffffffffffffffffff1673ffffffffffffffffffffffffffffffffffffffff16815260200191505060405180910390f35b61023c6004803603602081101561021057600080fd5b81019080803573ffffffffffffffffffffffffffffffffffffffff169060200190929190505050610937565b6040518080602001828103825283818151815260200191508051906020019080838360005b8381101561027c578082015181840152602081019050610261565b50505050905090810190601f1680156102a95780820380516001836020036101000a031916815260200191505b509250505060405180910390f35b6102f9600480360360208110156102cd57600080fd5b81019080803573ffffffffffffffffffffffffffffffffffffffff169060200190929190505050610bb8565b005b61033d6004803603602081101561031157600080fd5b81019080803573ffffffffffffffffffffffffffffffffffffffff169060200190929190505050610f7d565b604051808373ffffffffffffffffffffffffffffffffffffffff1673ffffffffffffffffffffffffffffffffffffffff1681526020018281526020019250505060405180910390f35b6103c86004803603602081101561039c57600080fd5b81019080803573ffffffffffffffffffffffffffffffffffffffff169060200190929190505050610fc1565b005b6103f6600480360360208110156103e057600080fd5b8101908080359060200190929190505050611363565b604051808273ffffffffffffffffffffffffffffffffffffffff1673ffffffffffffffffffffffffffffffffffffffff16815260200191505060405180910390f35b61047a6004803603602081101561044e57600080fd5b81019080803573ffffffffffffffffffffffffffffffffffffffff16906020019092919050505061139f565b005b6104846114b1565b005b60016020528060005260406000206000915090508060000160009054906101000a900460ff16908060010154908060020160009054906101000a900473ffffffffffffffffffffffffffffffffffffffff16908060030160009054906101000a900473ffffffffffffffffffffffffffffffffffffffff16905084565b600160008273ffffffffffffffffffffffffffffffffffffffff1673ffffffffffffffffffffffffffffffffffffffff16815260200190815260200160002060000160009054906101000a900460ff16156105c6576040517f08c379a000000000000000000000000000000000000000000000000000000000815260040180806020018281038252601a8152602001807f576f726b657220616c726561647920696e697469616c697a656400000000000081525060200191505060405180910390fd5b6003600160003373ffffffffffffffffffffffffffffffffffffffff1673ffffffffffffffffffffffffffffffffffffffff168152602001908152602001600020600101541415610662576040517f08c379a00000000000000000000000000000000000000000000000000000000081526004018080602001828103825260338152602001806115ef6033913960400191505060405180910390fd5b60018060008373ffffffffffffffffffffffffffffffffffffffff1673ffffffffffffffffffffffffffffffffffffffff16815260200190815260200160002060000160006101000a81548160ff02191690831515021790555033600160008373ffffffffffffffffffffffffffffffffffffffff1673ffffffffffffffffffffffffffffffffffffffff16815260200190815260200160002060030160006101000a81548173ffffffffffffffffffffffffffffffffffffffff021916908373ffffffffffffffffffffffffffffffffffffffff16021790555080600160008373ffffffffffffffffffffffffffffffffffffffff1673ffffffffffffffffffffffffffffffffffffffff16815260200190815260200160002060020160006101000a81548173ffffffffffffffffffffffffffffffffffffffff021916908373ffffffffffffffffffffffffffffffffffffffff1602179055506000809054906101000a900473ffffffffffffffffffffffffffffffffffffffff1673ffffffffffffffffffffffffffffffffffffffff163373ffffffffffffffffffffffffffffffffffffffff161415610860576002600160008373ffffffffffffffffffffffffffffffffffffffff1673ffffffffffffffffffffffffffffffffffffffff168152602001908152602001600020600101819055506108a9565b6003600160008373ffffffffffffffffffffffffffffffffffffffff1673ffffffffffffffffffffffffffffffffffffffff168152602001908152602001600020600101819055505b60038190806001815401808255809150509060018203906000526020600020016000909192909190916101000a81548173ffffffffffffffffffffffffffffffffffffffff021916908373ffffffffffffffffffffffffffffffffffffffff1602179055505050565b6000809054906101000a900473ffffffffffffffffffffffffffffffffffffffff1681565b606060008273ffffffffffffffffffffffffffffffffffffffff1660001b905060606040518060400160405280601081526020017f303132333435363738396162636465660000000000000000000000000000000081525090506060602a6040519080825280601f01601f1916602001820160405280156109c75781602001600182028038833980820191505090505b5090507f3000000000000000000000000000000000000000000000000000000000000000816000815181106109f857fe5b60200101907effffffffffffffffffffffffffffffffffffffffffffffffffffffffffffff1916908160001a9053507f780000000000000000000000000000000000000000000000000000000000000081600181518110610a5557fe5b60200101907effffffffffffffffffffffffffffffffffffffffffffffffffffffffffffff1916908160001a90535060008090505b6014811015610bac5782600485600c840160208110610aa557fe5b1a60f81b7effffffffffffffffffffffffffffffffffffffffffffffffffffffffffffff1916901c60f81c60ff1681518110610add57fe5b602001015160f81c60f81b826002830260020181518110610afa57fe5b60200101907effffffffffffffffffffffffffffffffffffffffffffffffffffffffffffff1916908160001a90535082600f60f81b85600c840160208110610b3e57fe5b1a60f81b1660f81c60ff1681518110610b5357fe5b602001015160f81c60f81b826002830260030181518110610b7057fe5b60200101907effffffffffffffffffffffffffffffffffffffffffffffffffffffffffffff1916908160001a9053508080600101915050610a8a565b50809350505050919050565b3373ffffffffffffffffffffffffffffffffffffffff16600260008373ffffffffffffffffffffffffffffffffffffffff1673ffffffffffffffffffffffffffffffffffffffff16815260200190815260200160002060000160009054906101000a900473ffffffffffffffffffffffffffffffffffffffff1673ffffffffffffffffffffffffffffffffffffffff1614158015610ce457503373ffffffffffffffffffffffffffffffffffffffff16600160008373ffffffffffffffffffffffffffffffffffffffff1673ffffffffffffffffffffffffffffffffffffffff16815260200190815260200160002060030160009054906101000a900473ffffffffffffffffffffffffffffffffffffffff1673ffffffffffffffffffffffffffffffffffffffff1614155b15610d3a576040517f08c379a00000000000000000000000000000000000000000000000000000000081526004018080602001828103825260428152602001806116486042913960600191505060405180910390fd5b6001600260008373ffffffffffffffffffffffffffffffffffffffff1673ffffffffffffffffffffffffffffffffffffffff168152602001908152602001600020600101600082825401925050819055506003600260008373ffffffffffffffffffffffffffffffffffffffff1673ffffffffffffffffffffffffffffffffffffffff168152602001908152602001600020600101541415610f7a57600260008273ffffffffffffffffffffffffffffffffffffffff1673ffffffffffffffffffffffffffffffffffffffff16815260200190815260200160002060000160009054906101000a900473ffffffffffffffffffffffffffffffffffffffff16600160008373ffffffffffffffffffffffffffffffffffffffff1673ffffffffffffffffffffffffffffffffffffffff16815260200190815260200160002060030160006101000a81548173ffffffffffffffffffffffffffffffffffffffff021916908373ffffffffffffffffffffffffffffffffffffffff1602179055506040518060400160405280600073ffffffffffffffffffffffffffffffffffffffff1681526020016000815250600260008373ffffffffffffffffffffffffffffffffffffffff1673ffffffffffffffffffffffffffffffffffffffff16815260200190815260200160002060008201518160000160006101000a81548173ffffffffffffffffffffffffffffffffffffffff021916908373ffffffffffffffffffffffffffffffffffffffff160217905550602082015181600101559050505b50565b60026020528060005260406000206000915090508060000160009054906101000a900473ffffffffffffffffffffffffffffffffffffffff16908060010154905082565b6000600160003373ffffffffffffffffffffffffffffffffffffffff1673ffffffffffffffffffffffffffffffffffffffff16815260200190815260200160002060010154141561105d576040517f08c379a00000000000000000000000000000000000000000000000000000000081526004018080602001828103825260268152602001806116226026913960400191505060405180910390fd5b6003600160003373ffffffffffffffffffffffffffffffffffffffff1673ffffffffffffffffffffffffffffffffffffffff1681526020019081526020016000206001015414611115576040517f08c379a00000000000000000000000000000000000000000000000000000000081526004018080602001828103825260158152602001807f4d7573742062652061206d656d62657220726f6c65000000000000000000000081525060200191505060405180910390fd5b8073ffffffffffffffffffffffffffffffffffffffff16600160003373ffffffffffffffffffffffffffffffffffffffff1673ffffffffffffffffffffffffffffffffffffffff16815260200190815260200160002060030160009054906101000a900473ffffffffffffffffffffffffffffffffffffffff1673ffffffffffffffffffffffffffffffffffffffff1614156111fc576040517f08c379a00000000000000000000000000000000000000000000000000000000081526004018080602001828103825260348152602001806115bb6034913960400191505060405180910390fd5b6002600160008373ffffffffffffffffffffffffffffffffffffffff1673ffffffffffffffffffffffffffffffffffffffff1681526020019081526020016000206001015414611297576040517f08c379a000000000000000000000000000000000000000000000000000000000815260040180806020018281038252602b815260200180611590602b913960400191505060405180910390fd5b6001600260003373ffffffffffffffffffffffffffffffffffffffff1673ffffffffffffffffffffffffffffffffffffffff1681526020019081526020016000206001018190555080600260003373ffffffffffffffffffffffffffffffffffffffff1673ffffffffffffffffffffffffffffffffffffffff16815260200190815260200160002060000160006101000a81548173ffffffffffffffffffffffffffffffffffffffff021916908373ffffffffffffffffffffffffffffffffffffffff16021790555050565b6003818154811061137057fe5b906000526020600020016000915054906101000a900473ffffffffffffffffffffffffffffffffffffffff1681565b7f01495a36fdbac2744da15d1294c336a851e72d97c029e4810481d48cd647518c600160008373ffffffffffffffffffffffffffffffffffffffff1673ffffffffffffffffffffffffffffffffffffffff16815260200190815260200160002060010154600160008473ffffffffffffffffffffffffffffffffffffffff1673ffffffffffffffffffffffffffffffffffffffff16815260200190815260200160002060030160009054906101000a900473ffffffffffffffffffffffffffffffffffffffff16604051808381526020018273ffffffffffffffffffffffffffffffffffffffff1673ffffffffffffffffffffffffffffffffffffffff1681526020019250505060405180910390a150565b7f2a5e4f4ee475dea28433aa669f05b176aa08e75f1d6ece5cb35d2e23a83a5dd961151360036000815481106114e357fe5b9060005260206000200160009054906101000a900473ffffffffffffffffffffffffffffffffffffffff16610937565b6040518080602001828103825283818151815260200191508051906020019080838360005b83811015611553578082015181840152602081019050611538565b50505050905090810190601f1680156115805780820380516001836020036101000a031916815260200191505b509250505060405180910390a156fe4d656d62657220616c6c6f77656420746f2073776974636820746f2061206e65772048656164206f6e6c79596f752063616e206e6f74207265717565737420737769746368696e6720746f207468652073616d65206465706172746d656e744f6e6c79204d616e61676572206f72204465706172746d656e7420686561642063616e2072656769737465722061207573657254686973206163636f756e74206973206e6f74206120776f726b65722773206163636f756e744f6e6c792063757272656e742068656164206f72206e657720686561642061726520616c6c6f77656420746f206167726565206f6e20746869732072657175657374a265627a7a72315820d594f949830723f354369c61739d20a0e20bff787e9f31febb5f1b74a5ae78ad64736f6c63430005100032",
  "source": "pragma solidity >=0.4.21 <0.7.0;\n\ncontract Liability {\n\n    struct Worker {\n      bool init;\n        uint role; // 1: manager, 2: dept head, 3: member\n        address id;\n        address boss;\n    }\n    struct Request {\n      address toHead;\n      uint agrees;\n    }\n\n    //modifer\n\n    address public manager;\n    mapping(address => Worker) public workers;\n    mapping(address => Request) public requests;\n    address[] public workersList;\n\n    // Create a new ballot with 4 different proposals.\n    constructor () public {\n      manager = msg.sender;\n      workers[manager].init = true;\n      workers[manager].role = 1;\n      workers[manager].id = manager;\n      workers[manager].boss = address(0);\n      workersList.push(msg.sender);\n    }\n\n\n\n\n    function register(address toWorker) public{\n      if (workers[toWorker].init ) revert (\"Worker already initialized\");\n      if(workers[msg.sender].role == 3) revert (\"Only Manager or Department head can register a user\");\n      workers[toWorker].init = true;\n      workers[toWorker].boss = msg.sender;\n      workers[toWorker].id = toWorker;\n      if(msg.sender == manager) {\n        workers[toWorker].role = 2;\n      } else {\n        // case : sender is department head\n        workers[toWorker].role = 3;\n      }\n      workersList.push(toWorker);\n    }\n\n    function requestSwitchDept(address toHead) public {\n      if(workers[msg.sender].role == 0) revert(\"This account is not a worker's account\");\n      if(workers[msg.sender].role != 3) revert(\"Must be a member role\");\n      if(workers[msg.sender].boss == toHead)  revert(\"You can not request switching to the same department\");\n      if(workers[toHead].role != 2) revert(\"Member allowed to switch to a new Head only\");\n      requests[msg.sender].agrees = 1;   // Worker initiated a request\n      requests[msg.sender].toHead = toHead;\n    }\n    function agreeToRequest(address requester) public {\n      if(requests[requester].toHead != msg.sender && workers[requester].boss != msg.sender) {\n        revert(\"Only current head or new head are allowed to agree on this request\");\n      }\n      requests[requester].agrees += 1;\n      if (requests[requester].agrees == 3) {\n        workers[requester].boss = requests[requester].toHead;\n        // Removing request\n        requests[requester] = Request(address(0), 0);\n      }\n    }\n\n    // function toBytes(address a) public pure returns (bytes memory b){\n    //     assembly {\n    //         let m := mload(0x40)\n    //         a := and(a, 0xFFFFFFFFFFFFFFFFFFFFFFFFFFFFFFFFFFFFFFFF)\n    //         mstore(add(m, 20), xor(0x140000000000000000000000000000000000000000, a))\n    //         mstore(0x40, add(m, 52))\n    //         b := m\n    //   }\n    // }\n\n  function addressToString(address _addr) public pure returns(string memory) {\n      bytes32 value = bytes32(uint256(_addr));\n      bytes memory alphabet = \"0123456789abcdef\";\n\n      bytes memory str = new bytes(42);\n      str[0] = '0';\n      str[1] = 'x';\n      for (uint i = 0; i < 20; i++) {\n          str[2+i*2] = alphabet[uint(uint8(value[i + 12] >> 4))];\n          str[3+i*2] = alphabet[uint(uint8(value[i + 12] & 0x0f))];\n      }\n      return string(str);\n  }\n\n  // events\n  event NewWorker(uint role, address boss);\n  event Workers(string list);\n  function getWorker(address add) public{\n    emit NewWorker(workers[add].role, workers[add].boss);\n  }\n  function getWorkers() public   {\n    emit Workers(addressToString(workersList[0]));\n    // return toBytes(workersList[0]);\n  }\n  // function getWorkers() public  {\n  //     emit Workers(workersList);\n  // }\n}\n",
  "sourcePath": "/Users/mahmoudfathy/Developer/blockchain-workspace/liability-ledger/contracts/Liability.sol",
  "compiler": {
    "name": "solc",
    "version": "0.5.16+commit.9c3226ce.Emscripten.clang"
  },
  "schemaVersion": "3.0.23",
  "updatedAt": "2020-04-12T19:17:36.796Z",
  "devdoc": {
    "methods": {}
  },
  "userdoc": {
    "methods": {}
  }
}