{
  "contractName": "Liability",
  "abi": [
    {
      "inputs": [],
      "payable": false,
      "stateMutability": "nonpayable",
      "type": "constructor"
    },
    {
      "anonymous": false,
      "inputs": [
        {
          "indexed": false,
          "internalType": "string",
          "name": "list",
          "type": "string"
        }
      ],
      "name": "Workers",
      "type": "event"
    },
    {
      "constant": true,
      "inputs": [],
      "name": "manager",
      "outputs": [
        {
          "internalType": "address",
          "name": "",
          "type": "address"
        }
      ],
      "payable": false,
      "stateMutability": "view",
      "type": "function"
    },
    {
      "constant": true,
      "inputs": [
        {
          "internalType": "address",
          "name": "",
          "type": "address"
        }
      ],
      "name": "requests",
      "outputs": [
        {
          "internalType": "address",
          "name": "toHead",
          "type": "address"
        },
        {
          "internalType": "uint256",
          "name": "agrees",
          "type": "uint256"
        }
      ],
      "payable": false,
      "stateMutability": "view",
      "type": "function"
    },
    {
      "constant": true,
      "inputs": [
        {
          "internalType": "address",
          "name": "",
          "type": "address"
        }
      ],
      "name": "workers",
      "outputs": [
        {
          "internalType": "bool",
          "name": "init",
          "type": "bool"
        },
        {
          "internalType": "enum Liability.Role",
          "name": "role",
          "type": "uint8"
        },
        {
          "internalType": "address",
          "name": "id",
          "type": "address"
        },
        {
          "internalType": "address",
          "name": "boss",
          "type": "address"
        }
      ],
      "payable": false,
      "stateMutability": "view",
      "type": "function"
    },
    {
      "constant": true,
      "inputs": [
        {
          "internalType": "uint256",
          "name": "",
          "type": "uint256"
        }
      ],
      "name": "workersList",
      "outputs": [
        {
          "internalType": "address",
          "name": "",
          "type": "address"
        }
      ],
      "payable": false,
      "stateMutability": "view",
      "type": "function"
    },
    {
      "constant": false,
      "inputs": [
        {
          "internalType": "address",
          "name": "toWorker",
          "type": "address"
        }
      ],
      "name": "register",
      "outputs": [],
      "payable": false,
      "stateMutability": "nonpayable",
      "type": "function"
    },
    {
      "constant": false,
      "inputs": [
        {
          "internalType": "address",
          "name": "toHead",
          "type": "address"
        }
      ],
      "name": "requestSwitchDept",
      "outputs": [],
      "payable": false,
      "stateMutability": "nonpayable",
      "type": "function"
    },
    {
      "constant": false,
      "inputs": [
        {
          "internalType": "address",
          "name": "requester",
          "type": "address"
        }
      ],
      "name": "agreeToRequest",
      "outputs": [],
      "payable": false,
      "stateMutability": "nonpayable",
      "type": "function"
    },
    {
      "constant": false,
      "inputs": [],
      "name": "getWorkers",
      "outputs": [],
      "payable": false,
      "stateMutability": "nonpayable",
      "type": "function"
    }
  ],
  "bytecode": "0x608060405234801561001057600080fd5b50336000806101000a81548173ffffffffffffffffffffffffffffffffffffffff021916908373ffffffffffffffffffffffffffffffffffffffff16021790555060018060008060009054906101000a900473ffffffffffffffffffffffffffffffffffffffff1673ffffffffffffffffffffffffffffffffffffffff1673ffffffffffffffffffffffffffffffffffffffff16815260200190815260200160002060000160006101000a81548160ff0219169083151502179055506000600160008060009054906101000a900473ffffffffffffffffffffffffffffffffffffffff1673ffffffffffffffffffffffffffffffffffffffff1673ffffffffffffffffffffffffffffffffffffffff16815260200190815260200160002060000160016101000a81548160ff0219169083600281111561014c57fe5b02179055506000809054906101000a900473ffffffffffffffffffffffffffffffffffffffff16600160008060009054906101000a900473ffffffffffffffffffffffffffffffffffffffff1673ffffffffffffffffffffffffffffffffffffffff1673ffffffffffffffffffffffffffffffffffffffff16815260200190815260200160002060000160026101000a81548173ffffffffffffffffffffffffffffffffffffffff021916908373ffffffffffffffffffffffffffffffffffffffff1602179055506000600160008060009054906101000a900473ffffffffffffffffffffffffffffffffffffffff1673ffffffffffffffffffffffffffffffffffffffff1673ffffffffffffffffffffffffffffffffffffffff16815260200190815260200160002060010160006101000a81548173ffffffffffffffffffffffffffffffffffffffff021916908373ffffffffffffffffffffffffffffffffffffffff16021790555060033390806001815401808255809150509060018203906000526020600020016000909192909190916101000a81548173ffffffffffffffffffffffffffffffffffffffff021916908373ffffffffffffffffffffffffffffffffffffffff160217905550506119118061032c6000396000f3fe608060405234801561001057600080fd5b50600436106100885760003560e01c806374adad1d1161005b57806374adad1d1461023657806380e05d65146102c15780639fc1fce914610305578063c1499f711461037357610088565b80634048a2571461008d5780634420e48614610164578063481c6a75146101a85780635f9e9184146101f2575b600080fd5b6100cf600480360360208110156100a357600080fd5b81019080803573ffffffffffffffffffffffffffffffffffffffff16906020019092919050505061037d565b60405180851515151581526020018460028111156100e957fe5b60ff1681526020018373ffffffffffffffffffffffffffffffffffffffff1673ffffffffffffffffffffffffffffffffffffffff1681526020018273ffffffffffffffffffffffffffffffffffffffff1673ffffffffffffffffffffffffffffffffffffffff16815260200194505050505060405180910390f35b6101a66004803603602081101561017a57600080fd5b81019080803573ffffffffffffffffffffffffffffffffffffffff169060200190929190505050610407565b005b6101b061086f565b604051808273ffffffffffffffffffffffffffffffffffffffff1673ffffffffffffffffffffffffffffffffffffffff16815260200191505060405180910390f35b6102346004803603602081101561020857600080fd5b81019080803573ffffffffffffffffffffffffffffffffffffffff169060200190929190505050610894565b005b6102786004803603602081101561024c57600080fd5b81019080803573ffffffffffffffffffffffffffffffffffffffff169060200190929190505050610c59565b604051808373ffffffffffffffffffffffffffffffffffffffff1673ffffffffffffffffffffffffffffffffffffffff1681526020018281526020019250505060405180910390f35b610303600480360360208110156102d757600080fd5b81019080803573ffffffffffffffffffffffffffffffffffffffff169060200190929190505050610c9d565b005b6103316004803603602081101561031b57600080fd5b81019080803590602001909291905050506110a7565b604051808273ffffffffffffffffffffffffffffffffffffffff1673ffffffffffffffffffffffffffffffffffffffff16815260200191505060405180910390f35b61037b6110e3565b005b60016020528060005260406000206000915090508060000160009054906101000a900460ff16908060000160019054906101000a900460ff16908060000160029054906101000a900473ffffffffffffffffffffffffffffffffffffffff16908060010160009054906101000a900473ffffffffffffffffffffffffffffffffffffffff16905084565b600160008273ffffffffffffffffffffffffffffffffffffffff1673ffffffffffffffffffffffffffffffffffffffff16815260200190815260200160002060000160009054906101000a900460ff16156104ca576040517f08c379a000000000000000000000000000000000000000000000000000000000815260040180806020018281038252601a8152602001807f576f726b657220616c726561647920696e697469616c697a656400000000000081525060200191505060405180910390fd5b6002808111156104d657fe5b600160003373ffffffffffffffffffffffffffffffffffffffff1673ffffffffffffffffffffffffffffffffffffffff16815260200190815260200160002060000160019054906101000a900460ff16600281111561053157fe5b1415610588576040517f08c379a00000000000000000000000000000000000000000000000000000000081526004018080602001828103825260338152602001806118426033913960400191505060405180910390fd5b60018060008373ffffffffffffffffffffffffffffffffffffffff1673ffffffffffffffffffffffffffffffffffffffff16815260200190815260200160002060000160006101000a81548160ff02191690831515021790555033600160008373ffffffffffffffffffffffffffffffffffffffff1673ffffffffffffffffffffffffffffffffffffffff16815260200190815260200160002060010160006101000a81548173ffffffffffffffffffffffffffffffffffffffff021916908373ffffffffffffffffffffffffffffffffffffffff16021790555080600160008373ffffffffffffffffffffffffffffffffffffffff1673ffffffffffffffffffffffffffffffffffffffff16815260200190815260200160002060000160026101000a81548173ffffffffffffffffffffffffffffffffffffffff021916908373ffffffffffffffffffffffffffffffffffffffff1602179055506000809054906101000a900473ffffffffffffffffffffffffffffffffffffffff1673ffffffffffffffffffffffffffffffffffffffff163373ffffffffffffffffffffffffffffffffffffffff1614156107a15760018060008373ffffffffffffffffffffffffffffffffffffffff1673ffffffffffffffffffffffffffffffffffffffff16815260200190815260200160002060000160016101000a81548160ff0219169083600281111561079757fe5b0217905550610806565b6002600160008373ffffffffffffffffffffffffffffffffffffffff1673ffffffffffffffffffffffffffffffffffffffff16815260200190815260200160002060000160016101000a81548160ff0219169083600281111561080057fe5b02179055505b60038190806001815401808255809150509060018203906000526020600020016000909192909190916101000a81548173ffffffffffffffffffffffffffffffffffffffff021916908373ffffffffffffffffffffffffffffffffffffffff1602179055505050565b6000809054906101000a900473ffffffffffffffffffffffffffffffffffffffff1681565b3373ffffffffffffffffffffffffffffffffffffffff16600260008373ffffffffffffffffffffffffffffffffffffffff1673ffffffffffffffffffffffffffffffffffffffff16815260200190815260200160002060000160009054906101000a900473ffffffffffffffffffffffffffffffffffffffff1673ffffffffffffffffffffffffffffffffffffffff16141580156109c057503373ffffffffffffffffffffffffffffffffffffffff16600160008373ffffffffffffffffffffffffffffffffffffffff1673ffffffffffffffffffffffffffffffffffffffff16815260200190815260200160002060010160009054906101000a900473ffffffffffffffffffffffffffffffffffffffff1673ffffffffffffffffffffffffffffffffffffffff1614155b15610a16576040517f08c379a000000000000000000000000000000000000000000000000000000000815260040180806020018281038252604281526020018061189b6042913960600191505060405180910390fd5b6001600260008373ffffffffffffffffffffffffffffffffffffffff1673ffffffffffffffffffffffffffffffffffffffff168152602001908152602001600020600101600082825401925050819055506003600260008373ffffffffffffffffffffffffffffffffffffffff1673ffffffffffffffffffffffffffffffffffffffff168152602001908152602001600020600101541415610c5657600260008273ffffffffffffffffffffffffffffffffffffffff1673ffffffffffffffffffffffffffffffffffffffff16815260200190815260200160002060000160009054906101000a900473ffffffffffffffffffffffffffffffffffffffff16600160008373ffffffffffffffffffffffffffffffffffffffff1673ffffffffffffffffffffffffffffffffffffffff16815260200190815260200160002060010160006101000a81548173ffffffffffffffffffffffffffffffffffffffff021916908373ffffffffffffffffffffffffffffffffffffffff1602179055506040518060400160405280600073ffffffffffffffffffffffffffffffffffffffff1681526020016000815250600260008373ffffffffffffffffffffffffffffffffffffffff1673ffffffffffffffffffffffffffffffffffffffff16815260200190815260200160002060008201518160000160006101000a81548173ffffffffffffffffffffffffffffffffffffffff021916908373ffffffffffffffffffffffffffffffffffffffff160217905550602082015181600101559050505b50565b60026020528060005260406000206000915090508060000160009054906101000a900473ffffffffffffffffffffffffffffffffffffffff16908060010154905082565b60006002811115610caa57fe5b600160003373ffffffffffffffffffffffffffffffffffffffff1673ffffffffffffffffffffffffffffffffffffffff16815260200190815260200160002060000160019054906101000a900460ff166002811115610d0557fe5b1415610d5c576040517f08c379a00000000000000000000000000000000000000000000000000000000081526004018080602001828103825260268152602001806118756026913960400191505060405180910390fd5b600280811115610d6857fe5b600160003373ffffffffffffffffffffffffffffffffffffffff1673ffffffffffffffffffffffffffffffffffffffff16815260200190815260200160002060000160019054906101000a900460ff166002811115610dc357fe5b14610e36576040517f08c379a00000000000000000000000000000000000000000000000000000000081526004018080602001828103825260158152602001807f4d7573742062652061206d656d62657220726f6c65000000000000000000000081525060200191505060405180910390fd5b8073ffffffffffffffffffffffffffffffffffffffff16600160003373ffffffffffffffffffffffffffffffffffffffff1673ffffffffffffffffffffffffffffffffffffffff16815260200190815260200160002060010160009054906101000a900473ffffffffffffffffffffffffffffffffffffffff1673ffffffffffffffffffffffffffffffffffffffff161415610f1d576040517f08c379a000000000000000000000000000000000000000000000000000000000815260040180806020018281038252603481526020018061180e6034913960400191505060405180910390fd5b60016002811115610f2a57fe5b600160008373ffffffffffffffffffffffffffffffffffffffff1673ffffffffffffffffffffffffffffffffffffffff16815260200190815260200160002060000160019054906101000a900460ff166002811115610f8557fe5b14610fdb576040517f08c379a000000000000000000000000000000000000000000000000000000000815260040180806020018281038252602b8152602001806117e3602b913960400191505060405180910390fd5b6001600260003373ffffffffffffffffffffffffffffffffffffffff1673ffffffffffffffffffffffffffffffffffffffff1681526020019081526020016000206001018190555080600260003373ffffffffffffffffffffffffffffffffffffffff1673ffffffffffffffffffffffffffffffffffffffff16815260200190815260200160002060000160006101000a81548173ffffffffffffffffffffffffffffffffffffffff021916908373ffffffffffffffffffffffffffffffffffffffff16021790555050565b600381815481106110b457fe5b906000526020600020016000915054906101000a900473ffffffffffffffffffffffffffffffffffffffff1681565b606060405180602001604052806000815250905060008090505b60038054905081101561130057611149826040518060400160405280600881526020017f616464726573733a0000000000000000000000000000000000000000000000008152506113a0565b91506111948261118f6003848154811061115f57fe5b9060005260206000200160009054906101000a900473ffffffffffffffffffffffffffffffffffffffff16611468565b6113a0565b91506111d5826040518060400160405280600181526020017f3b000000000000000000000000000000000000000000000000000000000000008152506113a0565b9150611216826040518060400160405280600581526020017f726f6c653a0000000000000000000000000000000000000000000000000000008152506113a0565b91506112b0826112ab600160006003868154811061123057fe5b9060005260206000200160009054906101000a900473ffffffffffffffffffffffffffffffffffffffff1673ffffffffffffffffffffffffffffffffffffffff1673ffffffffffffffffffffffffffffffffffffffff16815260200190815260200160002060000160019054906101000a900460ff166116e9565b6113a0565b91506112f1826040518060400160405280600181526020017f0a000000000000000000000000000000000000000000000000000000000000008152506113a0565b915080806001019150506110fd565b507f2a5e4f4ee475dea28433aa669f05b176aa08e75f1d6ece5cb35d2e23a83a5dd9816040518080602001828103825283818151815260200191508051906020019080838360005b83811015611363578082015181840152602081019050611348565b50505050905090810190601f1680156113905780820380516001836020036101000a031916815260200191505b509250505060405180910390a150565b606082826040516020018083805190602001908083835b602083106113da57805182526020820191506020810190506020830392506113b7565b6001836020036101000a03801982511681845116808217855250505050505090500182805190602001908083835b6020831061142b5780518252602082019150602081019050602083039250611408565b6001836020036101000a03801982511681845116808217855250505050505090500192505050604051602081830303815290604052905092915050565b606060008273ffffffffffffffffffffffffffffffffffffffff1660001b905060606040518060400160405280601081526020017f303132333435363738396162636465660000000000000000000000000000000081525090506060602a6040519080825280601f01601f1916602001820160405280156114f85781602001600182028038833980820191505090505b5090507f30000000000000000000000000000000000000000000000000000000000000008160008151811061152957fe5b60200101907effffffffffffffffffffffffffffffffffffffffffffffffffffffffffffff1916908160001a9053507f78000000000000000000000000000000000000000000000000000000000000008160018151811061158657fe5b60200101907effffffffffffffffffffffffffffffffffffffffffffffffffffffffffffff1916908160001a90535060008090505b60148110156116dd5782600485600c8401602081106115d657fe5b1a60f81b7effffffffffffffffffffffffffffffffffffffffffffffffffffffffffffff1916901c60f81c60ff168151811061160e57fe5b602001015160f81c60f81b82600283026002018151811061162b57fe5b60200101907effffffffffffffffffffffffffffffffffffffffffffffffffffffffffffff1916908160001a90535082600f60f81b85600c84016020811061166f57fe5b1a60f81b1660f81c60ff168151811061168457fe5b602001015160f81c60f81b8260028302600301815181106116a157fe5b60200101907effffffffffffffffffffffffffffffffffffffffffffffffffffffffffffff1916908160001a90535080806001019150506115bb565b50809350505050919050565b6060600060028111156116f857fe5b82600281111561170457fe5b1415611747576040518060400160405280600781526020017f4d616e616765720000000000000000000000000000000000000000000000000081525090506117dd565b6001600281111561175457fe5b82600281111561176057fe5b14156117a3576040518060400160405280600481526020017f486561640000000000000000000000000000000000000000000000000000000081525090506117dc565b6040518060400160405280600681526020017f4d656d626572000000000000000000000000000000000000000000000000000081525090505b5b91905056fe4d656d62657220616c6c6f77656420746f2073776974636820746f2061206e65772048656164206f6e6c79596f752063616e206e6f74207265717565737420737769746368696e6720746f207468652073616d65206465706172746d656e744f6e6c79204d616e61676572206f72204465706172746d656e7420686561642063616e2072656769737465722061207573657254686973206163636f756e74206973206e6f74206120776f726b65722773206163636f756e744f6e6c792063757272656e742068656164206f72206e657720686561642061726520616c6c6f77656420746f206167726565206f6e20746869732072657175657374a265627a7a723158203f324786fd1024ae011c1e2969e0ea79bfa1d8d6bac6dec9bd80dd3f6d254c1164736f6c63430005100032",
  "source": "pragma solidity >=0.4.21 <0.7.0;\n\ncontract Liability {\n\n  enum Role { Manager, Head, Member }\n\n    struct Worker {\n      bool init;\n        Role role; // 1: manager, 2: dept head, 3: member\n        address id;\n        address boss;\n    }\n    struct Request {\n      address toHead;\n      uint agrees;\n    }\n\n    //modifer\n\n    address public manager;\n    mapping(address => Worker) public workers;\n    mapping(address => Request) public requests;\n    address[] public workersList;\n\n    // Create a new ballot with 4 different proposals.\n    constructor () public {\n      manager = msg.sender;\n      workers[manager].init = true;\n      workers[manager].role = Role.Manager;\n      workers[manager].id = manager;\n      workers[manager].boss = address(0);\n      workersList.push(msg.sender);\n    }\n\n\n\n\n    function register(address toWorker) public{\n      if (workers[toWorker].init ) revert (\"Worker already initialized\");\n      if(workers[msg.sender].role == Role.Member) revert (\"Only Manager or Department head can register a user\");\n      workers[toWorker].init = true;\n      workers[toWorker].boss = msg.sender;\n      workers[toWorker].id = toWorker;\n      if(msg.sender == manager) {\n        workers[toWorker].role = Role.Head;\n      } else {\n        // case : sender is department head\n        workers[toWorker].role = Role.Member;\n      }\n      workersList.push(toWorker);\n    }\n\n    function requestSwitchDept(address toHead) public {\n      if(workers[msg.sender].role == Role.Manager) revert(\"This account is not a worker's account\");\n      if(workers[msg.sender].role != Role.Member) revert(\"Must be a member role\");\n      if(workers[msg.sender].boss == toHead)  revert(\"You can not request switching to the same department\");\n      if(workers[toHead].role != Role.Head) revert(\"Member allowed to switch to a new Head only\");\n      requests[msg.sender].agrees = 1;   // Worker initiated a request\n      requests[msg.sender].toHead = toHead;\n    }\n    function agreeToRequest(address requester) public {\n      if(requests[requester].toHead != msg.sender && workers[requester].boss != msg.sender) {\n        revert(\"Only current head or new head are allowed to agree on this request\");\n      }\n      requests[requester].agrees += 1;\n      if (requests[requester].agrees == 3) {\n        workers[requester].boss = requests[requester].toHead;\n        // Removing request\n        requests[requester] = Request(address(0), 0);\n      }\n    }\n\n  function addressToString(address _addr) private pure returns(string memory) {\n      bytes32 value = bytes32(uint256(_addr));\n      bytes memory alphabet = \"0123456789abcdef\";\n\n      bytes memory str = new bytes(42);\n      str[0] = '0';\n      str[1] = 'x';\n      for (uint i = 0; i < 20; i++) {\n          str[2+i*2] = alphabet[uint(uint8(value[i + 12] >> 4))];\n          str[3+i*2] = alphabet[uint(uint8(value[i + 12] & 0x0f))];\n      }\n      return string(str);\n  }\n\n  function concat(string memory _s1, string memory _s2) private pure returns(string memory) {\n    return string(abi.encodePacked(bytes(_s1), bytes(_s2)));\n  }\n\n  function role2string(Role role) private pure returns (string memory roleStr) {\n    if(role == Role.Manager) {\n      roleStr = \"Manager\";\n    } else if (role == Role.Head) {\n      roleStr = \"Head\";\n    } else {\n      roleStr = \"Member\";\n    }\n  }\n  \n\n  // events\n  event Workers(string list);\n  function getWorkers() public   {\n    string memory str = \"\";\n    for (uint i = 0; i < workersList.length; i++) {\n      str = concat(str, \"address:\");\n      str = concat(str, addressToString(workersList[i]));\n      str = concat(str, \";\");\n      str = concat(str, \"role:\");\n      str = concat(str, role2string(workers[workersList[i]].role));\n      str = concat(str, \"\\n\");\n    }\n    emit Workers(str);\n  }\n}\n",
  "sourcePath": "/Users/mahmoudfathy/Developer/blockchain-workspace/liability-ledger/contracts/Liability.sol",
  "compiler": {
    "name": "solc",
    "version": "0.5.16+commit.9c3226ce.Emscripten.clang"
  },
  "schemaVersion": "3.0.23",
  "updatedAt": "2020-04-15T20:49:48.939Z",
  "devdoc": {
    "methods": {}
  },
  "userdoc": {
    "methods": {}
  }
}